{
  "contractName": "Tenderwize",
  "abi": [
    {
      "constant": true,
      "inputs": [
        {
          "name": "",
          "type": "uint256"
        }
      ],
      "name": "GSTIDArr",
      "outputs": [
        {
          "name": "",
          "type": "bytes"
        }
      ],
      "payable": false,
      "stateMutability": "view",
      "type": "function"
    },
    {
      "constant": true,
      "inputs": [
        {
          "name": "",
          "type": "uint256"
        }
      ],
      "name": "hashArr",
      "outputs": [
        {
          "name": "",
          "type": "bytes"
        }
      ],
      "payable": false,
      "stateMutability": "view",
      "type": "function"
    },
    {
      "constant": true,
      "inputs": [
        {
          "name": "GSTID",
          "type": "bytes"
        },
        {
          "name": "hash",
          "type": "bytes"
        },
        {
          "name": "givenHash",
          "type": "bytes"
        }
      ],
      "name": "matchFileHash",
      "outputs": [
        {
          "name": "",
          "type": "bool"
        }
      ],
      "payable": false,
      "stateMutability": "view",
      "type": "function"
    },
    {
      "constant": false,
      "inputs": [
        {
          "name": "GSTID",
          "type": "bytes"
        },
        {
          "name": "hash",
          "type": "bytes"
        }
      ],
      "name": "mapClient",
      "outputs": [
        {
          "name": "",
          "type": "bool"
        }
      ],
      "payable": false,
      "stateMutability": "nonpayable",
      "type": "function"
    },
    {
      "inputs": [],
      "payable": false,
      "stateMutability": "nonpayable",
      "type": "constructor"
    }
  ],
  "bytecode": "0x6060604052341561000f57600080fd5b600060c8819055506109ff806100266000396000f300606060405260043610610062576000357c0100000000000000000000000000000000000000000000000000000000900463ffffffff1680632f66ffc51461006757806342d6dbce146101035780635ba4106f1461019f578063a08efcd21461029a575b600080fd5b341561007257600080fd5b6100886004808035906020019091905050610352565b6040518080602001828103825283818151815260200191508051906020019080838360005b838110156100c85780820151818401526020810190506100ad565b50505050905090810190601f1680156100f55780820380516001836020036101000a031916815260200191505b509250505060405180910390f35b341561010e57600080fd5b6101246004808035906020019091905050610404565b6040518080602001828103825283818151815260200191508051906020019080838360005b83811015610164578082015181840152602081019050610149565b50505050905090810190601f1680156101915780820380516001836020036101000a031916815260200191505b509250505060405180910390f35b34156101aa57600080fd5b610280600480803590602001908201803590602001908080601f0160208091040260200160405190810160405280939291908181526020018383808284378201915050505050509190803590602001908201803590602001908080601f0160208091040260200160405190810160405280939291908181526020018383808284378201915050505050509190803590602001908201803590602001908080601f016020809104026020016040519081016040528093929190818152602001838380828437820191505050505050919050506104b6565b604051808215151515815260200191505060405180910390f35b34156102a557600080fd5b610338600480803590602001908201803590602001908080601f0160208091040260200160405190810160405280939291908181526020018383808284378201915050505050509190803590602001908201803590602001908080601f01602080910402602001604051908101604052809392919081815260200183838082843782019150505050505091905050610797565b604051808215151515815260200191505060405180910390f35b60008160648110151561036157fe5b016000915090508054600181600116156101000203166002900480601f0160208091040260200160405190810160405280929190818152602001828054600181600116156101000203166002900480156103fc5780601f106103d1576101008083540402835291602001916103fc565b820191906000526020600020905b8154815290600101906020018083116103df57829003601f168201915b505050505081565b60648160648110151561041357fe5b016000915090508054600181600116156101000203166002900480601f0160208091040260200160405190810160405280929190818152602001828054600181600116156101000203166002900480156104ae5780601f10610483576101008083540402835291602001916104ae565b820191906000526020600020905b81548152906001019060200180831161049157829003601f168201915b505050505081565b600080600090505b60c85481101561078a57846040518082805190602001908083835b6020831015156104fe57805182526020820191506020810190506020830392506104d9565b6001836020036101000a03801982511681845116808217855250505050505090500191505060405180910390206000191660008260648110151561053e57fe5b01604051808280546001816001161561010002031660029004801561059a5780601f1061057857610100808354040283529182019161059a565b820191906000526020600020905b815481529060010190602001808311610586575b50509150506040518091039020600019161480156106985750836040518082805190602001908083835b6020831015156105e957805182526020820191506020810190506020830392506105c4565b6001836020036101000a03801982511681845116808217855250505050505090500191505060405180910390206000191660648260648110151561062957fe5b0160405180828054600181600116156101000203166002900480156106855780601f10610663576101008083540402835291820191610685565b820191906000526020600020905b815481529060010190602001808311610671575b5050915050604051809103902060001916145b801561076f5750826040518082805190602001908083835b6020831015156106d557805182526020820191506020810190506020830392506106b0565b6001836020036101000a038019825116818451168082178552505050505050905001915050604051809103902060001916846040518082805190602001908083835b60208310151561073c5780518252602082019150602081019050602083039250610717565b6001836020036101000a038019825116818451168082178552505050505050905001915050604051809103902060001916145b1561077d576001915061078f565b80806001019150506104be565b600091505b509392505050565b60006107a283610812565b15156107ad57600080fd5b82600060c8546064811015156107bf57fe5b0190805190602001906107d392919061092e565b5081606460c8546064811015156107e657fe5b0190805190602001906107fa92919061092e565b50600160c86000828254019250508190555092915050565b600080600090505b60c85481101561092357826040518082805190602001908083835b60208310151561085a5780518252602082019150602081019050602083039250610835565b6001836020036101000a03801982511681845116808217855250505050505090500191505060405180910390206000191660008260648110151561089a57fe5b0160405180828054600181600116156101000203166002900480156108f65780601f106108d45761010080835404028352918201916108f6565b820191906000526020600020905b8154815290600101906020018083116108e2575b505091505060405180910390206000191614156109165760009150610928565b808060010191505061081a565b600191505b50919050565b828054600181600116156101000203166002900490600052602060002090601f016020900481019282601f1061096f57805160ff191683800117855561099d565b8280016001018555821561099d579182015b8281111561099c578251825591602001919060010190610981565b5b5090506109aa91906109ae565b5090565b6109d091905b808211156109cc5760008160009055506001016109b4565b5090565b905600a165627a7a72305820ecc934c3104c0a9b66dca53b980501ef0e64c60195cb6c39163180dde1324bae0029",
  "source": "pragma solidity ^0.4.17;\n\ncontract Tenderwize {\n\tbytes [100] public GSTIDArr;\n\tbytes [100] public hashArr;\n\tuint cnt;\n\n\n\tfunction Tenderwize () public {\n\t\tcnt = 0;\n\t}\n\n\tfunction mapClient(bytes GSTID, bytes hash) public returns (bool) {\n\t\trequire (check(GSTID));\n\t\tGSTIDArr[cnt] = GSTID;\n\t\thashArr[cnt] = hash;\n\t\tcnt += 1;\n\t}\n\n\tfunction check (bytes GSTID) private view returns (bool) {\n\t\tfor (uint i = 0; i < cnt; i++) {\n\t\t\tif (keccak256(GSTIDArr[i]) == keccak256(GSTID)) {\n\t\t\t\treturn false;\n\t\t\t}\n\t\t}\n\t\treturn true;\n\t}\n\n\tfunction matchFileHash (bytes GSTID, bytes hash, bytes givenHash) view returns (bool) {\n\t\tfor (uint i = 0; i < cnt; i++) {\n\t\t\tif (keccak256(GSTIDArr[i]) == keccak256(GSTID) && keccak256(hashArr[i]) == keccak256(hash) && keccak256(hash) == keccak256(givenHash)) {\n\t\t\t\treturn true;\n\t\t\t}\n\t\t}\n\t\treturn false;\n\t}\n}",
  "sourcePath": "/home/deepak/Tenderwize/ethereum/contracts/Tenderwize.sol",
  "compiler": {
    "name": "solc",
    "version": "0.4.18+commit.9cf6e910.Emscripten.clang"
  },
  "schemaVersion": "1.0.1",
  "updatedAt": "2018-03-19T20:01:12.502Z"
}